:100000000C947E190C94A8190C94A8190C94A81996
:100010000C94A8190C94A8190C94A8190C94A8195C
:100020000C94A8190C94DF9B0C94A8190C94A81993
:100030000C94A8190C94EE600C94A8190C94A819AF
:100040000C94A8190C94D8420C94F79D0C94A81900
:100050000C94EC3E0C94A8190C94A8190C94A819B3
:100060000C94A8190C94A8190C94A8190C94A8190C
:100070000C94A8190C94A8190C94A8190C94A819FC
:100080000C94A8190C94A8190C94A819D19ADA9A6E
:10009000E49AED9AF69A119B1E9B279BFF9A089B68
:1000A000699B6C9B5F9B639B839B839B709B749BF7
:1000B0007A9B7E9B669D6B9D709D7A9DA89DA89D59
:1000C000849D8C9D949D9E9D4E414E494E49545910
:1000D000494E46CDCCCC3D0AD7233C17B7D1387713
:1000E000CC2B329595E6241FB14F0A000020410029
:1000F00000C84200401C4620BCBE4CCA1B0E5AAE73
:10010000C59D74434F4D4D554E49434154494F4E43
:100110000044525952554E004552524F52530049D5
:100120004E464F004543484F00536C6565702E2E78
:100130002E005A2070726F6265206F75742E2062D7
:1001400065640A005A2070726F6265206F75742EA4
:100150002062656400473238205A20466F72626917
:100160006464656E0A00473238205A20466F726216
:10017000696464656E00205A3A200020593A2000D4
:1001800042656420583A20005448334420455A417F
:10019000424C2072656164792E00526573756D69F9
:1001A0006E67207072696E7400436C69636B2074B3
:1001B0006F20726573756D652E2E2E004E6F206D4B
:1001C0006F76652E00456E642066696C65206C69EB
:1001D00073740A00426567696E2066696C65206CFD
:1001E0006973740A005344207072696E74696E6793
:1001F000206279746520004E6F7420534420707221
:10020000696E74696E670A002569730025696D203F
:10021000256973002569682025696D2025697300AB
:10022000256964202569682025696D20256973008A
:1002300025697920256964202569682025696D2054
:10024000256973005072696E742074696D653A2077
:100250000050726F7465637465642050696E0A00A3
:100260004525692025730024011F01180111010390
:10027000016F66660044454255473A004B494C4C75
:1002800045442E200042656420646F6E652E002078
:10029000573A004265642048656174696E672E00B4
:1002A0005448334420455A41424C204F66662E0044
:1002B0004361703A454D455247454E43595F504161
:1002C000525345523A300A004361703A4341534514
:1002D0005F4C494748545F4252494748544E455342
:1002E000533A300A004361703A544F47474C455FD8
:1002F0004C49474854533A300A004361703A534FCF
:100300004654574152455F504F5745523A300A00C4
:100310004361703A4C4556454C494E475F44415401
:10032000413A310A004361703A5A5F50524F424598
:100330003A310A004361703A4155544F4C45564595
:100340004C3A310A004361703A5052494E545F4A68
:100350004F423A310A004361703A50524F4752457A
:1003600053533A300A004361703A4155544F524555
:10037000504F52545F54454D503A310A004361701A
:100380003A454550524F4D3A310A004649524D5771
:100390004152455F4E414D453A4D61726C696E2048
:1003A0003131355448334420534F555243455F4310
:1003B0004F44455F55524C3A2050524F544F434F93
:1003C0004C5F56455253494F4E3A312E30204D41E5
:1003D0004348494E455F545950453A5448334420A8
:1003E000455A41424C2045585452554445525F436A
:1003F0004F554E543A3120555549443A7468336448
:100400000A007A5F6D696E3A2000795F6D696E3A15
:100410002000785F6D696E3A20005265706F7274CB
:10042000696E6720656E6473746F70207374617495
:1004300075730A004D31343520533C696E6465781C
:100440003E206F7574206F662072616E676520288C
:10045000302D31290A00205A002059005800202050
:100460004D61783A2000205A002059005800202081
:100470004D696E3A20004F6E20004F666600536F44
:10048000667420656E6473746F70733A20000001A7
:100490000F150E12FF16170E13FF03021A14FFFF9B
:1004A000FF0C04FFFFFF01000EFFFF0C190DFF18EA
:1004B000FFFFFFFFFFFF20643A0020693A00207031
:1004C0003A0023646566696E6520204445464155BF
:1004D0004C545F4B64200023646566696E65202080
:1004E00044454641554C545F4B6920002364656682
:1004F000696E65202044454641554C545F4B702041
:1005000000504944204175746F74756E65206669AA
:100510006E69736865642120507574207468652065
:100520006C617374204B702C204B6920616E6420C9
:100530004B6420636F6E7374616E74732066726FA8
:100540006D2062656C6F7720696E746F20436F6EEB
:1005500066696775726174696F6E2E680A0050492A
:1005600044204175746F74756E65206661696C65B1
:1005700064212074696D656F75740A0050494420C8
:100580004175746F74756E65206661696C65642170
:100590002054656D706572617475726520746F6F3B
:1005A00020686967680A00204B643A2000204B6984
:1005B0003A2000204B703A20000A20436C6173738C
:1005C000696320504944200A002054753A200020D5
:1005D0004B753A2000206D61783A2000206D696EDD
:1005E0003A200020643A200020626961733A2000BA
:1005F000426564204C6576656C696E6720004661D3
:10060000696C656420746F20656E61626C65204260
:100610006564204C6576656C696E670A00426564A6
:10062000204C6576656C20436F7272656374696FE8
:100630006E204D61747269783A004F666673657416
:1006400073206170706C696564004572723A205461
:100650006F6F206661722100546F6F206661722097
:1006600066726F6D207265666572656E6365207077
:100670006F696E740A003A20007A5F6D696E3A20E5
:10068000202D3230207A5F6D61783A2020323000A0
:100690005A204F666673657420004E6F2063617345
:1006A00065206C696768740A004163746976652027
:1006B00045787472756465723A2000556E6B6E6F82
:1006C000776E20636F6D6D616E643A2022004E6F0D
:1006D000204C696E65204E756D6265722077697475
:1006E0006820636865636B73756D2C204C6173744F
:1006F000204C696E653A20004B494C4C45442E20F5
:100700000053544F505045442E20005072696E746F
:1007100065722073746F70706564206475652074F1
:100720006F206572726F72732E204669782074682C
:1007300065206572726F7220616E6420757365202A
:100740004D39393920746F20726573746172742E5B
:10075000202854656D7065726174757265206973C7
:100760002072657365742E2053657420697420614E
:10077000667465722072657374617274696E67293C
:100780000A004E6F20436865636B73756D2077694F
:100790007468206C696E65206E756D6265722C20C0
:1007A0004C617374204C696E653A20006368656320
:1007B0006B73756D206D69736D617463682C204C6B
:1007C000617374204C696E653A20004C696E652037
:1007D0004E756D626572206973206E6F74204C6176
:1007E0007374204C696E65204E756D6265722B3195
:1007F0002C204C617374204C696E653A20004D3199
:100800003130004D3331004D383420582059205AB2
:1008100020450053442072656164206572726F72D6
:100820000A00446F6E65207072696E74696E67208D
:1008300066696C650A0020496E76616C69642065A2
:10084000787472756465722000000000000000007A
:10085000000000000000009643000096430000C81E
:100860004370012C0190012701B0012201C0011D3C
:1008700001F00118011002130130020E016002099B
:100880000190020401C002FF000003FA004003F5DA
:10089000008003F000D003EB002004E6007004E1C8
:1008A00000E004DC004005D700C005D2004006CDC2
:1008B00000D006C8008007C3003008BE00F008B9A9
:1008C00000C009B400B00AAF00B00BAA00D00CA55C
:1008D00000000EA000500F9B00C010960050129117
:1008E0000000148C00C0158700B0178200B0197D7D
:1008F00000D01B7800001E730040206E009022691B
:1009000000F024640040275F0090295A00E02B5536
:1009100000102E500020304B0010324600E03341D2
:100920000090353C001037370070383200A0392D68
:1009300000B03A2800A03B2300603C1E00103D1987
:1009400000903D1400103E0F00703E0A00C03E05AE
:1009500000003F0000403FFBFF803FF6FFC03FF13B
:10096000FF4572723A204D494E54454D5020424544
:1009700044004572723A204D494E54454D50004D49
:10098000494E54454D5020747269676765726564BD
:10099000004572723A204D415854454D5020424511
:1009A00044004572723A204D415854454D50004D17
:1009B000415854454D50207472696767657265648B
:1009C000004D6F76652058004D6F76652059004DBB
:1009D0006F7665205A004578747275646572004DB3
:1009E0006F766520302E316D6D004D6F766520314C
:1009F0006D6D004D6F76652031306D6D004D6F76F9
:100A00006520617869730045787472756465720059
:100A10004D6F7665205A004D6F76652059004D6FF9
:100A200076652058004578747275646572004D6F64
:100A30007665205A004D6F76652059004D6F7665BA
:100A400020580050726570617265004D3530320A71
:100A50004D35303000526573746F72652066616980
:100A60006C73616665004C6F6164207365747469B2
:100A70006E677300496E697469616C697A652045B7
:100A80004550524F4D0053746F72652073657474F6
:100A9000696E6773004D6F74696F6E0054656D7099
:100AA00065726174757265004D61696E00507265A2
:100AB000686561742041425320636F6E6600507216
:100AC000656865617420504C4120636F6E6600500C
:100AD00049442D44005049442D44005049442D4977
:100AE000005049442D49005049442D50005049447C
:100AF0002D500046616E2073706565640046616E1E
:100B00002073706565640046616E2073706565646E
:100B10000042656400426564004E6F7A7A6C65003D
:100B20004E6F7A7A6C6500436F6E74726F6C00530F
:100B3000746F72652073657474696E6773004265C3
:100B4000640042656400426564004E6F7A7A6C65A9
:100B5000004E6F7A7A6C65004E6F7A7A6C6500464B
:100B6000616E2073706565640046616E2073706508
:100B700065640046616E2073706565640054656D40
:100B800070657261747572650025753A253032752D
:100B900000253032753A25303275002575642025E0
:100BA0003032753A25303275005A00590058000924
:100BB00020000000000000000000000000007FFF97
:100BC000E00000000000000000000000007000E0F5
:100BD00000000000000000000000000061F860005C
:100BE000000000000000000000000041F8200000AC
:100BF0000000000000000000000040F020000000A5
:100C00000000000000000000004060200000000024
:100C100000000000000000005801A07F80000000DC
:100C2000000000004104005C63A0FFC00000000061
:100C30000000002082005EF7A0FFC000000000005E
:100C400000002082005EF7A0FFC00000000000004E
:100C5000004104005C63A07F8000000000000000F1
:100C60008208005801A07F800000000000000104FD
:100C70001000406020FFC0000000000000010410D0
:100C80000040F020FFC000000000000000820800CB
:100C900041F820FFC0000000000000004104006196
:100CA000F8603F000000000000000000000070003D
:100CB000E01E0000000000000001FFFF807FFFE059
:100CC0000C0000000000000001FFFF800000000099
:100CD00000000000000000000000007FFFE00000B6
:100CE000000000000000000000007000E0000000B4
:100CF000000000000000000000630C600000000025
:100D00000000000000000000470E2000000000006E
:100D1000000000000000004F0F2000000000000055
:100D20000000000000005F0FA000000000000000B5
:100D300000000000005E07A07F80000000000000AF
:100D400000410400406020FFC000000000000000DF
:100D500020820040F020FFC00000000000000020C2
:100D6000820040F020FFC0000000000000004104AD
:100D7000004060207F80000000000000008208002A
:100D80005E07A07F80000000000000010410005FEB
:100D90000FA0FFC0000000000000010410004F0F72
:100DA00020FFC000000000000000820800470E2065
:100DB000FFC000000000000000410400630C603F21
:100DC00000000000000000000000007000E01E00B5
:100DD00000000000000001FFFF807FFFE00C00002A
:100DE000000000000001FFFF800000000006090075
:100DF000FE000000000001090008FE0000050808D0
:100E000006000040F0C88888987810050808060099
:100E100000C0F88888888888F80505050600012044
:100E200030F830200508080600002070F820202047
:100E300020E00509090600FF2070A8A8B88888707E
:100E4000200509090600FFE080C0B0A82830282846
:100E50000509090600FFF8A88888888888A8F80589
:100E60000A0A0600FE205050505088A8A888700337
:100E7000030306000340A0405A204F666673657462
:100E8000004368616E67652066696C616D656E74AC
:100E9000005A204F666673657400466C6F77004693
:100EA0006C6F7700466C6F770046616E20737065DB
:100EB00065640046616E2073706565640046616E0E
:100EC0002073706565640042656400426564004E8D
:100ED0006F7A7A6C65004E6F7A7A6C650053706534
:100EE0006564005370656564005370656564004D0A
:100EF00061696E005072656865617420504C4120D4
:100F0000456E64005072656865617420504C4120E4
:100F1000426564005072656865617420504C410000
:100F20005072657061726500507265686561742009
:100F300041425320456E64005072656865617420BB
:100F400041425320426564005072656865617420B7
:100F50004142530050726570617265004D34323801
:100F6000004D3630302042300044697361626C6558
:100F7000207374657070657273004D38340053656A
:100F80007420686F6D65206F6666736574730043C7
:100F900068616E67652066696C616D656E7400429C
:100FA0006564204C6576656C696E67004732380A67
:100FB00047323900507265686561742041425300C0
:100FC0005072656865617420504C4100436F6F6CCE
:100FD000646F776E00486F6D65205A004732382085
:100FE0005A00486F6D652059004732382059004833
:100FF0006F6D652058004732382058004175746F76
:1010000020686F6D6500473238004D6F766520614E
:10101000786973004D61696E0024F4D43050C38E3A
:1010200020C2A24017828B7011127A910D816CD967
:101030000AA861E108C7586607615143061E4B5D67
:1010400005C145A7041A411104093D9803713931BE
:10105000034036DB0265339102D4305402802E1DEA
:1010600002632CEE01752AC501B028A0011027816A
:10107000018F2564012B244B01E0223401AC211F98
:10108000018D200D01801FFC00841EED00971DDFE7
:1010900000B81CD200E61BC600201BBC00641AB2BC
:1010A00000B219A8000A19A0006A189900D1179176
:1010B0000040178B00B516840031167E00B31579F9
:1010C000003A157300C7146F0058146A00EE1366D7
:1010D000008813630025135E00C7125B006C125773
:1010E0000015125400C111510070114F0021114B15
:1010F00000D61049008D10470046104400021042EF
:1011000000C00F4000800F3E00420F3C00060F3B26
:1011100000CB0E3800930E37005C0E3500270E34DE
:1011200000F30D3200C10D3100900D3000600D2E26
:1011300000320D2D00050D2C00D90C2B00AE0C2912
:1011400000850C29005C0C2700350C27000E0C26AE
:1011500000E80B2400C40B2400A00B23007D0B230C
:10116000005A0B2100390B2100180B2000F80A1F30
:1011700000D90A1E00BB0A1E009D0A1D00800A1D20
:1011800000630A1C00470A1B002C0A1B00110A1AE4
:1011900000F7091A00DD091900C4091900AB091983
:1011A00000920917007B091800630917004C091603
:1011B0000036091600200916000A091500F5081561
:1011C00000E0081400CC081400B8081400A40814A7
:1011D00000900813007D0812006B081300580812D5
:1011E00000460812003408110023081100120811EB
:1011F0000001081100F0071000E0071000D00710F0
:1012000000C0071000B0070F00A107100091070EE3
:101210000083070F0074070F0065070E0057070EC5
:101220000049070E003B070D002E070E0020070D9A
:101230000013070D0006070D00F9060C00ED060D62
:1012400000E0060C00D4060C00C8060C00BC060C1E
:1012500000B0060C00A4060B0099060C008D060BCE
:101260000082060B0077060B006C060B0061060A75
:101270000057060B004C060A0042060A0038060A10
:10128000002E060A0024060A001A060A00100609A3
:101290000007060A00FD050900F4050900EB050931
:1012A00000E2050900D9050900D0050900C70509B4
:1012B00000BE050900B5050800AD050800A5050933
:1012C000009C050800940508008C050800840508AA
:1012D000007C050800740508006C0507006505081A
:1012E000005D050700560508004E05070047050785
:1012F000004005080038050700310507002A0507EA
:1013000000230507001C050600160507000F05074A
:10131000000805060002050700FB040600F50407A7
:1013200000EE040600E8040600E2040700DB040601
:1013300000D5040600CF040600C9040600C3040655
:1013400000BD040600B7040600B1040500AC0406A5
:1013500000A6040600A00405009B040600950405F1
:1013600000900406008A0405008504050080040638
:10137000007A04050075040500700405006B04057F
:101380000066040500610405005C040500570405BF
:1013900000520405004D04050048040500430405FF
:1013A000003E0404003A040500350405003004043E
:1013B000002C04050027040400230405001E040477
:1013C000001A04040016040500110404000D0404AE
:1013D00000090405000404040000040400FC0304E4
:1013E00000F8030400F4030400F0030400EC030419
:1013F00000E8030400E4030400E0030400DC030449
:1014000000D8030400D4030400D0030400CC030478
:1014100000C8030300C503030024F404D9201BC43F
:101420000C5C0E9804C4095F0265077101F405F9AC
:1014300000FB04B30048048700C10369005803554A
:101440000003034500BE023A008402310053022A21
:10145000002902250004022000E4011C00C8011933
:1014600000AF0117009801140084011300710110EE
:10147000006101100051010E0043010D0036010B07
:10148000002B010B0020010B00150109000C0109C4
:101490000003010800FB000800F3000800EB000750
:1014A00000E4000600DE000600D8000600D20006B8
:1014B00000CC000500C7000500C2000500BD000407
:1014C00000B9000400B5000400B1000400AD000440
:1014D00000A9000400A5000300A20003009F00046F
:1014E000009B000300980003009500020093000396
:1014F00000900003008D0002008B000300880002B2
:10150000008600020084000300810002007F0002C8
:10151000007D0002007B00020079000200770001DC
:1015200000760002007400020072000100710002E7
:10153000006F0002006D0001006C0002006A0001F3
:1015400000690002006700010066000100650001FB
:1015500000640002006200010061000100600001FF
:10156000005F0002005D0001005C0001005B000103
:10157000005A000100590001005800010057000105
:101580000056000100550001005400010053000006
:101590000053000100520001005100010050000101
:1015A000004F0001004E0000004E0001004D000100
:1015B000004C0001004B0000004B0001004A0001FC
:1015C00000490001004800000048000100470001F8
:1015D00000460000004600010045000000450001F3
:1015E00000440001004300000043000100420000ED
:1015F00000420001004100000041000100400001E4
:10160000003F0000003F0001003E0000003E0001DE
:10161000003D0000003D0001003C0000003C0000D7
:10162000003C0001003B0000003B0001003A0000CC
:10163000003A0001003900000039000100380000C4
:1016400000380000003800010037000000370001BA
:1016500000360000003600000036000100350000B2
:1016600000350000003500010034000000340000A7
:10167000003400010033000000330000003300019B
:101680000032000000320000003200010031000092
:101690000031000000310001003000000030000087
:1016A00000300001002F0000002F0000002F00007C
:1016B000002F0001002E0000002E0000002E00016F
:1016C000002D0000002D0000002D0000002D000165
:1016D000002C0000002C0000002C0000002C000159
:1016E000002B0000002B0000002B0000002B00014D
:1016F000002A0000002A0000002A0000002A000141
:101700000029000000290000002900000029000035
:101710000029000100280000002800000028000027
:10172000002800000028000100270000002700001A
:10173000002700000027000000270001002600000D
:101740000026000000260000002600000026000100
:1017500000250000002500000025000000250000F5
:1017600000250000002500010024000000240000E6
:1017700000240000002400000024000100230000D9
:1017800000230000002300000023000000230000CD
:1017900000230000002300010022000000220000BE
:1017A00000220000002200000022000000220001B0
:1017B00000210000002100000021000000210000A5
:1017C0000021000000210000002100010020000095
:1017D0000020000000200000002000000020000089
:1017E000002000000020000000200001001F000079
:1017F000001F0000001F0000001F0000001F00006D
:10180000001F0000001F0001001E0000001E00005D
:10181000001E0000001E0000004D383420582059E2
:10182000205A2045006265640A002C207379737485
:10183000656D2073746F70706564212048656174F4
:1018400065725F49443A200048656174696E67209B
:101850006661696C65640048656174696E672066DD
:1018600061696C6564001000C90210012C0140011F
:10187000220170011801B0010E01F00104015002B3
:10188000FA00B002F0003003E600D003DC00900460
:10189000D2007005C800A006BE000008B400B00960
:1018A000AA00D00BA000600E960060118C000015FD
:1018B000820020197800C01D6E00A0226400B027AD
:1018C0005A00902C500000314600E0343C001038A3
:1018D0003200903A2800603C1E00A03D1400803E7B
:1018E0000A00203F000053442063617264206F6B44
:1018F0000A006F70656E526F6F74206661696C6567
:10190000640A00766F6C756D652E696E6974206669
:1019100061696C65640A00534420696E69742066CD
:1019200061696C0A006175746F25692E67004D321C
:1019300034004D32332025730057726974696E6725
:1019400020746F2066696C653A20006F70656E20A8
:101950006661696C65642C2046696C653A20006F8D
:1019600070656E206661696C65642C2046696C65E3
:101970003A200046696C652073656C656374656424
:101980000A002053697A653A200046696C65206F29
:1019900070656E65643A20006F70656E20666169DF
:1019A0006C65642C2046696C653A20002066696C81
:1019B000653A20004E6F7720002220706F7300225E
:1019C00020706172656E743A2200535542524F5531
:1019D00054494E452043414C4C20746172676574F4
:1019E0003A22004B494C4C45442E200074727969D0
:1019F0006E6720746F2063616C6C207375622D6755
:101A0000636F64652066696C65732077697468200C
:101A1000746F6F206D616E79206C6576656C732EC6
:101A2000204D4158206C6576656C2069733A0045FD
:101A300072726F723A0043616E6E6F74206F7065E0
:101A40006E2073756264697220006563686F3A0086
:101A500020706F736974696F6E206F7574206F6684
:101A60002072616E67652E0A003F50726F626520BA
:101A700000486F6D65202573257325732066697294
:101A80007374002066697273740A005A0059005812
:101A900000486F6D6520000A0A426564204C657637
:101AA000656C20436F7272656374696F6E204D615F
:101AB000747269783A00202B000A436F7272656372
:101AC000746564204265642048656967687420769F
:101AD000732E2042656420546F706F6C6F67793A83
:101AE0000A00202B000A4265642048656967687413
:101AF00020546F706F6772617068793A0A202020F5
:101B00002B2D2D2D204241434B202D2D2B0A202003
:101B1000207C20202020202020202020207C0A2023
:101B20004C207C20202020282B29202020207C20B5
:101B3000520A2045207C2020202020202020202008
:101B4000207C20490A2046207C20282D29204E2058
:101B5000282B29207C20470A2054207C202020206C
:101B6000202020202020207C20480A2020207C20AB
:101B7000202020282D29202020207C20540A2020CD
:101B8000207C20202020202020202020207C0A20B3
:101B900020204F2D2D2046524F4E54202D2D2B0A04
:101BA0002028302C30290A004D65616E206F662098
:101BB00073616D706C656420706F696E74733A2028
:101BC0000020643A200020623A200045716E2063B4
:101BD0006F656666696369656E74733A20613A2061
:101BE0000052756E6E696E6720696E204452592DE1
:101BF00052554E206D6F64650A0047323920417599
:101C0000746F20426564204C6576656C696E670A66
:101C10000028422961636B00284629726F6E7400A8
:101C20002852296967687400284C29656674003F4A
:101C30004E756D626572206F662070726F626520EE
:101C4000706F696E747320697320696D706C617553
:101C50007369626C65202832206D696E696D756DDF
:101C6000292E0A003F2856296572626F7365206C21
:101C70006576656C20697320696D706C6175736938
:101C8000626C652028302D34292E0A0020286361DB
:101C90006C63756C6174656429210A0020213D2004
:101CA00000454550524F4D20435243206D69736D9E
:101CB00061746368202D202873746F726564292015
:101CC00000290A002062797465733B2063726320E7
:101CD000002073746F7265642073657474696E6735
:101CE0007320726574726965766564202800204DE2
:101CF00061726C696E3D563430290A0028454550A2
:101D0000524F4D3D00454550524F4D207665727300
:101D1000696F6E206D69736D61746368200048613E
:101D20007264636F6465642044656661756C7420D9
:101D300053657474696E6773204C6F616465640ADF
:101D400000E8030000E8030000E803000088130037
:101D5000000000FA430000FA43000070410000C890
:101D6000410000A0420000A0420000C8430000BEA5
:101D70004220204D383531205A005A2D50726F6262
:101D800065204F666673657420286D6D293A0A00D8
:101D900020440020490020204D3330312050005095
:101DA00049442073657474696E67733A0A0020466B
:101DB0000020420020480020204D313435205300BF
:101DC0004D6174657269616C20686561747570201D
:101DD000706172616D65746572733A0A0020204DFE
:101DE0003432302053004175746F20426564204CBA
:101DF0006576656C696E673A0A00205A00205900C2
:101E000020204D323036205800486F6D65206F66B7
:101E1000667365743A0A00204500205A0020590074
:101E200020580020420020540020204D3230352020
:101E30005300416476616E6365643A20533C6D697A
:101E40006E5F66656564726174653E20543C6D69C1
:101E50006E5F74726176656C5F66656564726174ED
:101E6000653E20423C6D696E5F7365676D656E749B
:101E70005F74696D655F6D733E20583C6D61785F7E
:101E800078795F6A65726B3E205A3C6D61785F7A43
:101E90005F6A65726B3E20453C6D61785F655F6A85
:101EA00065726B3E0A0020540020520020204D3203
:101EB0003034205000416363656C65726174696FF2
:101EC0006E2028756E6974732F7332293A20503C46
:101ED0007072696E745F616363656C3E20523C7220
:101EE0006574726163745F616363656C3E20543C2A
:101EF00074726176656C5F616363656C3E0A002095
:101F00004500205A0020590020204D323031205801
:101F1000004D6178696D756D20416363656C657214
:101F20006174696F6E2028756E6974732F7332291E
:101F30003A0A00204500205A0020590020204D3246
:101F400030332058004D6178696D756D2066656588
:101F50006472617465732028756E6974732F7329B8
:101F60003A0A00204500205A0020590020204D390F
:101F70003220580053746570732070657220756E3E
:101F800069743A0A0020204D3230302044300A0073
:101F900020204D3230302044002044697361626C4F
:101FA00065640A0046696C616D656E7420736574C2
:101FB00074696E67733A0020204D31343920432014
:101FC0003B20556E69747320696E2043656C73699C
:101FD00075730A002020473231202020203B2055F5
:101FE0006E69747320696E206D6D0A0046696C65B8
:101FF0002064656C657465643A0044656C65746959
:102000006F6E206661696C65642C2046696C653A68
:1020100020006F70656E206661696C65642C2046D7
:10202000696C653A2000202F002042403A00204091
:102030003A006F6B0048656174696E6720646F6E6B
:10204000652E0020573A0045256920257300205A47
:102050003A0020593A0020436F756E7420583A00B8
:1020600020453A00205A3A0020593A00583A002FA9
:102070002F200053657474696E6720547261766511
:102080006C20416363656C65726174696F6E3A20A0
:102090000053657474696E6720526574726163746D
:1020A00020416363656C65726174696F6E3A2000EC
:1020B00053657474696E67205072696E7420416351
:1020C00063656C65726174696F6E3A200053657464
:1020D00074696E67205072696E7420616E6420545A
:1020E000726176656C20416363656C6572617469C9
:1020F0006F6E3A200045787472756465206D6F725A
:102100006500526573756D65207072696E7400525A
:102110004553554D45204F5054494F4E533A00209A
:10212000204E6F7A7A6C653A20006368616E67654D
:10213000006F66207468652066696C616D656E74F9
:10214000005761697420666F722073746172740045
:102150005052494E54205041555345440020204E82
:102160006F7A7A6C653A2000200066696C616D6553
:102170006E7420756E6C6F616400576169742066BF
:102180006F72005052494E542050415553454400FF
:1021900020204E6F7A7A6C653A20002000506C65E2
:1021A00061736520776169742E2E2E004865617415
:1021B000696E67206E6F7A7A6C65005052494E5492
:1021C000205041555345440020204E6F7A7A6C656B
:1021D0003A2000200068656174206E6F7A7A6C6521
:1021E0002E00507265737320627574746F6E207464
:1021F0006F005052494E54205041555345440020E1
:10220000204E6F7A7A6C653A2000746F20636F6E8F
:1022100074696E75652E2E2E00616E642070726575
:10222000737320627574746F6E00496E7365727497
:102230002066696C616D656E74005052494E542081
:102240005041555345440020204E6F7A7A6C653AD0
:102250002000200066696C616D656E74206C6F6192
:1022600064005761697420666F72005052494E5481
:10227000205041555345440020204E6F7A7A6C65BA
:102280003A2000200066696C616D656E7420657887
:102290007472756465005761697420666F720050CE
:1022A00052494E542050415553454400746F20729A
:1022B0006573756D65005761697420666F72207073
:1022C00072696E74005052494E5420504155534526
:1022D000440000002100240027002A000000220002
:1022E000250028002B0000002000230026002900E4
:1022F00002020202020202020404040404040404AE
:1023000003030303030303030101010101010101AD
:1023100001020408102040800102040810204080BF
:1023200001020408102040808040201008040201AF
:10233000000000010200090A000000000403080771
:10234000000000000000000000000000000000008D
:10235000024B494C4C45442E2000202D20496E76DE
:10236000616C6964206578747275646572206E753D
:102370006D62657220210A002020506C616E6E65CE
:102380007242756666657242797465733A20002000
:1023900046726565204D656D6F72793A2000436F16
:1023A0006D70696C65643A20536570203138203255
:1023B0003031370A00207C20417574686F723A20F2
:1023C0002854483344290A0000204C617374205576
:1023D0007064617465643A20003131355448334487
:1023E0000A004D61726C696E0020536F66747761EC
:1023F00072652052657365740A00205761746368C2
:10240000646F672052657365740A002042726F77AB
:102410006E206F75742052657365740A00204578CC
:102420007465726E616C2052657365740A00506F3A
:1024300077657255700A0073746172740A00657270
:10244000726F722077726974696E6720746F20668C
:10245000696C650A00456E6473746F707320256340
:1024600020256320256320256300205A3A00205947
:102470003A0020583A00656E6473746F7073206878
:1024800069743A2000446F6E6520736176696E67E7
:102490002066696C652E0A004D323900000609007D
:1024A000FE070192032120FFFF08FF07FF00000045
:1024B00006000001070706020080808080800080FF
:1024C000030202060105A0A0050707060000505000
:1024D000F850F850500507070600002078A0702833
:1024E000F020050707060000C0C810204098180516
:1024F00007070600006090A040A89068020303064A
:102500000104C0408003070706010020408080804E
:10251000402003070706010080402020204080055E
:10252000050506000120A870A82005050506000184
:102530002020F820200203030602FFC0408005018E
:1025400001060003F8020202060200C0C0050505EC
:10255000060001081020408005070706000070886B
:10256000888888887003070706010040C040404003
:1025700040E0050707060000708808708080F805B5
:102580000707060000F81020100808F005070706E6
:10259000000010305090F81010050707060000F8F2
:1025A00080F008088870050707060000708080F03A
:1025B000888870050707060000F8081020202020F2
:1025C000050707060000708888708888700507076F
:1025D0000600007088887808087002050506020069
:1025E000C0C000C0C00206060602FFC0C000C04056
:1025F00080040707060000102040804020100503DB
:1026000003060002F800F8040707060100804020D6
:102610001020408005070706000070880810200081
:102620002005070706000070880868A8A87005073D
:1026300007060000708888F8888888050707060064
:1026400000F08888F08888F0050707060000708889
:102650008080808870050707060000F088888888D9
:1026600088F0050707060000F88080F08080F805F4
:102670000707060000F88080F080808005070706C5
:102680000000708880B888887005070706000088F9
:102690008888F88888880107070602008080808083
:1026A0008080800507070600003810101010906029
:1026B0000507070600008890A0C0A09088050707BE
:1026C000060000808080808080F8050707060000F3
:1026D00088D8A8888888880507070600008888C8E1
:1026E000A898888805070706000070888888888869
:1026F00070050707060000F08888F08080800507D5
:102700000706000070888888A890680507070600FB
:1027100000F08888F0A09088050707060000788000
:1027200080700808F0050707060000F82020202028
:10273000202005070706000088888888888870059B
:102740000707060000888888888850200507070644
:1027500000008888888888A8500507070600008838
:102760008850205088880507070600008888885010
:10277000202020050707060000F80810204080F8F8
:10278000030707060100E08080808080E0050505E2
:102790000600018040201008030707060100E02022
:1027A00020202020E00503030600042050880501B6
:1027B00001060000F8020202060205804005050538
:1027C00006000070087888780507070600008080FA
:1027D000B0C88888F0050505060000708080887004
:1027E0000507070600000808689888887805050529
:1027F0000600007088F88070050707060000304862
:10280000E0404040400506060600FF7088887808D2
:10281000700507070600008080B0C8888888010717
:10282000070602008000808080808003080806017F
:10283000FF200020202020A0400407070600008081
:102840008090A0C0A090030707060100C040404050
:102850004040E0050505060000D0A8A8A8A8050589
:1028600005060000B0C888888805050506000070C8
:10287000888888700506060600FFF08888F080804A
:102880000506060600FF788888780808050505060D
:102890000000B0C8808080050505060000708070CB
:1028A00008F00407070600004040E04040403005C3
:1028B000050506000088888898680505050600005B
:1028C00088888850200505050600008888A8A8503B
:1028D00005050506000088502050880506060600FC
:1028E000FF888888780870050505060000F8102024
:1028F00040F80307070601002040408040402001C7
:10290000070706020080808080808080030707061A
:10291000010080404020404080050202060002681D
:10292000900000000600000000000600000000000B
:102930000600000000000600000000000600000085
:102940000000060000000000060000000000060075
:10295000000000000600000000000600000000006B
:102960000600000000000600000000000600000055
:102970000000060000000000060000000000060045
:10298000000000000600000000000600000000003B
:102990000600000000000600000000000600000025
:1029A0000000060000000000060000000000060015
:1029B000000000000600000000000600000000000B
:1029C00006000000000006000000000006000000F5
:1029D00000000600000000000600000000000600E5
:1029E00000000000060000000000060000010707CC
:1029F00006020080008080808080050707060000B6
:102A00002070A8A0A87020050707060000304040ED
:102A1000E04050A805050506000088705070880544
:102A20000707060000885020F820F8200107070655
:102A30000200808080008080800508080600003049
:102A400048205050209060030101060107A00507AF
:102A500007060000F888B8B8B888F8050707060028
:102A600001700878887800F80505050600012850EF
:102A7000A05028050303060001F808080202020618
:102A800002064080050707060000F888A88898A875
:102A9000F8050101060006F804040406000360902E
:102AA00090600507070600002020F8202000F804A9
:102AB000050506000360902040F0030505060003AD
:102AC000E020E020E002020206020640800508083D
:102AD0000600FF8888888898E88080050707060038
:102AE0000078989878181818020202060202C0C0EE
:102AF0000202020602FF408003050506000340C0F3
:102B00004040E0050707060001708888887000F8DB
:102B1000050505060001A0502850A005070706007E
:102B2000008890A858B80808050707060000889094
:102B3000B848982038050808060000C040C048D8AA
:102B4000380808050707060000200020408088702C
:102B50000508080600004020007088F888880508ED
:102B6000080600001020007088F88888050808060C
:102B700000002050007088F88888050808060000CA
:102B80006890007088F888880508080600005000E2
:102B9000708888F888880508080600002050207092
:102BA00088F888880507070600003860A0B8E0A00C
:102BB000B80508080600FF708880808870206005CE
:102BC0000808060000402000F880F080F80508089A
:102BD000060000081000F880F080F80508080600DC
:102BE00000205000F880F080F8050707060000502C
:102BF00000F880F080F8030808060100804000E03B
:102C0000404040E0030808060100204000E040404A
:102C100040E003080806010040A000E0404040E01A
:102C2000030707060100A000E0404040E005070759
:102C3000060000704848E84848700508080600008B
:102C400068900088C8A898880508080600004020F9
:102C50007088888888700508080600001020708831
:102C60008888887005080806000020500070888851
:102C700088700508080600006890007088888870D1
:102C800005080806000050007088888888700505CF
:102C90000506000188502050880508080600FF102E
:102CA00070A8A8A8A8704005080806000040208861
:102CB00088888888700508080600001020888888A1
:102CC00088887005080806000020500088888888D9
:102CD00070050808060000500088888888887005FC
:102CE000080806000010208850202020200509092F
:102CF0000600FFC040704848704040E004080806E5
:102D000001FF609090A09090E08005080806000008
:102D10004020007008788878050808060000102018
:102D200000700878887805080806000020500070B8
:102D30000878887805080806000068900070087810
:102D40008878050707060000500070087888780525
:102D500008080600002050207008788878050606CC
:102D6000060000D02878A0A8500506060600FF70CF
:102D700080887020600508080600004020007088E8
:102D8000F880700508080600001020007088F880A0
:102D9000700508080600002050007088F880700553
:102DA000070706000050007088F8807003080806C6
:102DB000010080400040C04040E0030808060100D8
:102DC00020400040C04040E003080806010040A049
:102DD0000040C04040E0030707060100A00040C0DB
:102DE0004040E0050707060000A040A0107888706A
:102DF000050808060000689000B0C88888880508A3
:102E000008060000402000708888887005080806C1
:102E100000001020007088888870050808060000EF
:102E200020500070888888700508080600006890A7
:102E300000708888887005070706000050007088B9
:102E40008888700505050600012000F800200507A8
:102E5000070600FF1070A8A8A87040050808060023
:102E6000004020008888889868050808060000103F
:102E7000200088888898680508080600002050000F
:102E800088888898680507070600005000888888A9
:102E900098680509090600FF102000888888F8084E
:102EA000700407070601FFC04060506040E005085D
:102EB000080600FF50008888887808704572726F95
:102EC000722077726974696E6720746F204545506F
:102ED000524F4D210A00290A002062797465733B24
:102EE00020637263200053657474696E67732053A6
:102EF000746F72656420280056652D6A65726B00D8
:102F000056652D6A65726B0056652D6A65726B0099
:102F1000567A2D6A65726B00567A2D6A65726B005F
:102F200056792D6A65726B0056792D6A65726B0051
:102F300056792D6A65726B0056782D6A65726B0042
:102F400056782D6A65726B0056782D6A65726B0033
:102F50004D6F74696F6E004573746570732F6D6D7E
:102F6000004573746570732F6D6D005A73746570CE
:102F7000732F6D6D005A73746570732F6D6D0059EA
:102F800073746570732F6D6D005973746570732F52
:102F90006D6D005873746570732F6D6D0058737488
:102FA0006570732F6D6D004D6F74696F6E00537493
:102FB0006570732F6D6D004A65726B0041636365C8
:102FC0006C65726174696F6E0056656C6F636974CD
:102FD00079005A204F666673657400436F6E747291
:102FE0006F6C0043616E6E6F7420656E7465722045
:102FF0007375626469723A2000022E2E00015265D8
:103000006672657368004D61696E007C3C3E5E2BA4
:103010003D3F2F5B5D3B2C2A225C006F6B004B49D0
:103020004C4C45442E20004B494C4C206361757339
:10303000656420627920746F6F206D756368206904
:103040006E6163746976652074696D65202D2063F7
:10305000757272656E7420636F6D6D616E643A2077
:1030600000506C6561736520726573657400505221
:10307000494E5445522048414C54454400507269D1
:103080006E7465722068616C7465642E206B696C67
:103090006C28292063616C6C6564210A00656E717F
:1030A00075657565696E67202200000000000000EC
:1030B0000000000000000000F0410000F0410000AE
:1030C0008040000000005761726E696E673A2048C8
:1030D0006F6D696E672042756D7020446976697303
:1030E0006F72203C20310A000202040000A0400060
:1030F00000A04000000040000096430000964300FE
:1031000000C843FFFFFF50726F62696E67206661FF
:10311000696C65640A0050726F62696E672066614F
:10312000696C656400205A3A200020593A20004218
:10313000656420583A2000544845524D414C205275
:10314000554E4157415900546865726D616C20526B
:10315000756E61776179005654726176206D696E83
:10316000005654726176206D696E00565472617615
:10317000206D696E00566D696E00566D696E005661
:103180006D696E00566D6178204500566D6178203E
:103190004500566D6178204500566D6178205A00D3
:1031A000566D6178205A00566D6178205A00566D30
:1031B0006178205900566D6178205900566D61780C
:1031C000205900566D6178205800566D617820585E
:1031D00000566D61782058004D6F74696F6E004124
:1031E0006D6178204500416D6178204500416D6139
:1031F00078205A00416D6178205A00416D61782035
:103200005900416D6178205900416D617820580066
:10321000416D6178205800412D74726176656C00B3
:10322000412D74726176656C00412D726574726116
:10323000637400412D72657472616374004163634D
:10324000656C00416363656C004D6F74696F6E005F
:103250005072696E742070617573656400005072FD
:10326000696E742061626F72746564004D32310062
:103270004E6F2053442063617264004368616E673F
:10328000652053442063617264004D3231005072F6
:10329000696E742066726F6D2053440053746F70B2
:1032A000207072696E7400496E69742E2053442038
:1032B0006361726400526573756D65207072696E2A
:1032C00074005061757365207072696E7400436F8D
:1032D0006E74726F6C005072657061726500547527
:1032E0006E6500496E666F2073637265656E00528D
:1032F0006573656E643A2000D3EE1DEC11241FBE89
:10330000CFEFD0E4DEBFCDBF12E0A0E0B1E0E0E45B
:10331000F7EF01E00BBF02C007900D92AE3AB10784
:10332000D9F723E1AEEAB2E001C01D92A034B207A2
:10333000E1F719E1CDE7D9E104C02197FE010E9430
:1033400009FBCC37D107C9F70E9422E70C9493FB05
:103350000C9400002F923F924F925F926F927F9257
:103360008F929F92AF92BF92CF92DF92EF92FF9295
:103370000F931F93CF93DF93CDB7DEB7C056D1091C
:103380000FB6F894DEBF0FBECDBF00914C0E20E605
:10339000029F800111240453134F8091600E80FF1F
:1033A0001AC0EAE4FAE184917F013FEFE31AF30ADD
:1033B000811102C0780104C00E94BA3AF701F3CF2C
:1033C000D7018D917D01882319F00E94BA3AF8CF78
:1033D0008AE00E94BA3A1092CD021092CC028FE39A
:1033E0008093F3021092F2021092F1021092C8023E
:1033F0001092C9021092CA021092CB02F801808189
:103400000F5F1F4F8032D1F38E34B1F4818190ED84
:10341000980F9A3020F08D3211F08B3269F4329689
:10342000DF0131962C9120532A30D0F3CD01FC01DD
:10343000019620812032D9F3F093BF0EE093BE0EA7
:103440007F01BFEFEB1AFB0A10816AE270E0C7014F
:103450000E945BFB009731F0FC0131978081803244
:10346000E1F311821D3429F0143519F0173409F0F5
:10347000CBC0F70180812FEFE21AF20A8032C9F344
:1034800080538A3008F0C0C01093F3022091F102FB
:103490003091F2024AE03196429FC001439F900D65
:1034A0001124DF0111972C91022E000C330B2053B5
:1034B0003109280F391F808180538A3060F330939F
:1034C000F2022093F102DF0131968C918032D9F320
:1034D0001D34D1F42E31310591F03CF42731310502
:1034E00071F02C31310581F40AC02537310564F0C3
:1034F0002737310524F0203A43E0340729F4B0930C
:10350000CD02A093CC0280C01092CD021092CC02CA
:103510000091BE0E61E070E0FD0131968C91882330
:1035200009F472C08132A1F41D3491F420323105C6
:1035300079F4F093CD02E093CC0263E270E0CF0126
:103540000E945BFB009709F45FC0DC011C925CC029
:103550009FEBD92ED80E49E1C42ECD14C0F1AF0196
:10356000FA0190814F5F5F4F9032D1F340ED490FE8
:103570004A3040F043ED490F423020F09B3211F0C9
:103580000C94F72FAF01AD2CB12C7501A3E0F5948D
:10359000E794AA95E1F7C70188539D4F7C018D2DD3
:1035A0008770DB0102C0AA0FBB1F8A95E2F7CD012D
:1035B000D7019C91892B8C934115510511F0401B2B
:1035C00001C040E0D501A255BD4F4C930AC0809187
:1035D000CC029091CD02892B21F4B093CD02A0931F
:1035E000CC02808181548A3110F4DF0195CFDF0154
:1035F00031969C9190539A30D0F3CD01FC01019605
:1036000040814032D9F3F1CF8091F3028D3409F437
:10361000F5C3843511F40C94982F873411F00C9471
:10362000DA2F8091F1029091F2028D31910509F427
:10363000DCC274F48430910509F444C124F4029787
:10364000D8F00C94F42F4C9709F483C10C94F42F08
:103650008A35910509F455C32CF44E9709F4C9C273
:103660000C94F42F8B35910509F44FC38C359105DB
:1036700009F450C30C94F42F80912701882311F48E
:103680000C94F42F14EDC12E1EE0D12E07E4E02E91
:103690000AE0F02E8CEEA82E82E0B82E09E811E0A8
:1036A00094E0992E900EF80181918F010E94333A97
:1036B0008823E1F00E94003AD5012C91211104C029
:1036C0002091F002222331F0F701208131814281E3
:1036D000538103C020E030E0A9010E94B5F8D60173
:1036E0006D937D938D939C9313970AC0F70180810E
:1036F0009181A281B381F60180839183A283B383F8
:10370000F4E0CF0ED11C24E0E20EF11C3FEFA31A2F
:10371000B30A9012C8CF86E40E94623A8823C9F0A7
:103720000E94003A20E030E0A9010E9438FA181601
:1037300084F40E94003A20E030E040E752E40E9426
:1037400038F9609340017093410180934201909356
:10375000430180913F01882309F45AC0C0901601AB
:10376000D0901701E0901801F0901901A70196017F
:103770006091D40E7091D50E8091D60E9091D70E97
:103780000E9438FA181644F4C092D40ED092D50E86
:10379000E092D60EF092D70EC0901A01D0901B0185
:1037A000E0901C01F0901D01A70196016091D80ED8
:1037B0007091D90E8091DA0E9091DB0E0E9438FA4A
:1037C000181644F4C092D80ED092D90EE092DA0EB8
:1037D000F092DB0EC0901E01D0901F01E0902001FE
:1037E000F0902101A70196016091DC0E7091DD0E31
:1037F0008091DE0E9091DF0E0E9438FA181644F484
:10380000C092DC0ED092DD0EE092DE0EF092DF0E62
:103810000E94753A2091D40E3091D50E4091D60E6B
:103820005091D70E6091470A7091480A8091490AD9
:1038300090914A0A0E9484F481111DC02091D80EF3
:103840003091D90E4091DA0E5091DB0E60914B0A07
:1038500070914C0A80914D0A90914E0A0E9484F416
:10386000811109C060914001709141018091420134
:10387000909143011AC06091140170911501072EB7
:10388000000C880B990B0E948BF420914001309121
:10389000410140914201509143010E94EAF42AE023
:1038A00037ED43E25CE30E94EAF40E94453880E190
:1038B000E4EDFEE0A7E4BAE001900D928A95E1F70D
:1038C0000C94F42F80E50E94623A882329F00E942C
:1038D000BC396B017C0103C0C12CD12C760183E57E
:1038E0000E94623A882361F00E94003A20E030E0B2
:1038F0004AE754E40E94EAF40E94B1F96B017C01AA
:103900000E94A96080914501811105C060E089E2B3
:1039100091E00E94DECD0E94753A8091C00E909198
:10392000C10EA091C20EB091C30EC80ED91EEA1EE0
:10393000FB1E0E94EB9DDC01CB018C199D09AE0999
:10394000BF09B7FD02C00C94F42F80E00E9431D46F
:10395000F0CF0E94A96080E00E9409720E949A3A0A
:1039600081E080939A0C88E50E94333AE82E89E53D
:103970000E94333A082F8AE50E94333AF82EE1106C
:1039800005C0011105C011E0182705C0011102C0D2
:1039900010E001C0182F0E943B38111105C0E11042
:1039A00003C0002309F440C020E030E040EA50E4C6
:1039B00060911F0F7091200F8091210F9091220F25
:1039C0000E94B5F86093DC0E7093DD0E8093DE0EDE
:1039D0009093DF0E20914F0A3091500A4091510A86
:1039E0005091520A0E9438FA18165CF419821A8211
:1039F0001B821C82BE016F5F7F4F8CED9EE00E9498
:103A00003338111105C0E11003C0011107C00CC00B
:103A100080E090E00E9451D21123B9F381E090E060
:103A20000E9451D2111103C0FF2009F4CFC0809130
:103A30009B0C882321F080919C0C81111EC060E0BA
:103A400086E691E00E94DECDEAE4FAE184918F01FE
:103A50000F5F1F4F882321F00E94BA3AF801F6CF7A
:103A6000E5E5F1E084918F010F5F1F4F882309F492
:103A7000ADC00E94BA3AF801F5CF0E947539409066
:103A8000170F5090180F6090190F70901A0F8091B7
:103A90001B0F90911C0FA0911D0FB0911E0F8CA7B2
:103AA0009DA7AEA7BFA780914F0A9091500AA09101
:103AB000510AB091520A8093DC0E9093DD0EA093D0
:103AC000DE0EB093DF0E20E030E046E153E4C301A8
:103AD000B2010E94B5F820E030E040E352E40E94D9
:103AE000B5F84B015C016093D40E7093D50E8093B2
:103AF000D60E9093D70E20E030E046E153E46CA55B
:103B00007DA58EA59FA50E94B5F820E030E040E29B
:103B100051E40E94B5F86B017C016093D80E70935C
:103B2000D90E8093DA0E9093DB0EA3019201C501AA
:103B3000B4010E94B4F84B015C012FE632E143E886
:103B40005AEB0E9438FA87FF02C00C94083021E239
:103B500030E046E953E4C501B4010E9484F418162C
:103B600014F40C9408302CA53DA54EA55FA5C70103
:103B7000B6010E94B4F86B017C012FE632E143E804
:103B80005AEB0E9438FA87FF02C00C94083021E2F9
:103B900030E046E953E4C701B6010E9484F41816E8
:103BA00014F40C94083019821A821B821C829E0124
:103BB0002F5F3F4F4FE45AE068ED7EE084ED9EE0DA
:103BC0000E944E3782E090E00E9451D20E947539E7
:103BD00080917A0C80939A0C0E94803A83E08093C3
:103BE00044010E946D8E0C94F42F0E9425730C9456
:103BF000F42F20E030E040E352E46091470A7091F6
:103C0000480A8091490A90914A0A0E94B4F86B01CF
:103C10007C0188E50E94623A882321F00E94003AE4
:103C20006B017C01C8A2D9A2EAA2FBA220E030E08D
:103C300040E251E460914B0A70914C0A80914D0A28
:103C400090914E0A0E94B4F86B017C0189E50E94B4
:103C5000623A882321F00E94003A6B017C01C982FC
:103C6000DA82EB82FC8240901B0F50901C0F609018
:103C70001D0F70901E0F2091170F3091180F40915B
:103C8000190F50911A0F68A179A18AA19BA10E94D6
:103C9000B4F84B015C012FE632E143E85AEB0E9495
:103CA00038FA87FF02C00C94F42F21E230E040E89C
:103CB00053E4C501B4010E9484F4181614F40C9462
:103CC000F42FA3019201C701B6010E94B4F86B0161
:103CD0007C012FE632E143E85AEB0E9438FA87FF75
:103CE00002C00C94F42F21E230E041E953E4C70113
:103CF000B6010E9484F4181614F40C94F42F0C945A
:103D000027301092F0020C94F42F81E08093F0029F
:103D10000C94F42F85E40E94623AB82E811102C0FF
:103D20000E94A960F9E88F2EF1E09F2EA7E4CA2E29
:103D3000AAE0DA2EB8ECEB2EBEE0FB2E00E010E09D
:103D4000A12CD4018D914D010E94623A8823F1F19A
:103D5000F6012081318142815381A0962FAFA09737
:103D6000A1963FAFA1976E964FAF6E976F965FAFDC
:103D70006F970E94003AD6016D937D938D939C932B
:103D80001397A0962FADA097A1963FADA1976E96E1
:103D90004FAD6E976F965FAD6F9703301105B1F021
:103DA0000E94B4F89B01AC01F701608171818281AE
:103DB00093810E94B5F8D7016D937D938D939C9369
:103DC0001397C8010E94A038AA24A3940F5F1F4F25
:103DD000B4E0CB0ED11CE4E0EE0EF11C0430110572
:103DE00009F0AFCFAA2019F00E94753903C0B110B5
:103DF0000E9426700E946D8E0C94F42F8091F10227
:103E00009091F2028337910509F433C60CF0CFC0CC
:103E10008B34910509F416C40CF061C0883191050A
:103E200009F4BAC2ACF58231910509F483C5BCF43A
:103E300097FF02C00C94F42F823091050CF4CAC194
:103E4000419711F00C94F42F60E08CEB91E00E940C
:103E5000DECD5E985E9815985E980C94F42F8531AF
:103E6000910509F47EC23CF4449711F00C94F42FB0
:103E7000E4EDF1E033C28631910509F476C247974B
:103E800011F00C94F42FE091CC02F091CD0277C2A6
:103E90008C31910509F4D5C264F48A31910509F495
:103EA00086C20CF092C21092E70F0E94A4700C948C
:103EB000F42F8F31910509F4DFC244F44E9711F0CD
:103EC0000C94F42F0E9476920C94F42F803291057A
:103ED00009F4C1C28A9709F475C30C94F42F88368B
:103EE000910509F4BBC3B4F58235910509F419C5F0
:103EF000C4F48D34910509F4ADC30CF4A7C3813526
:103F0000910511F00C94F42F0E94B8440E94A9600E
:103F10000E94AFD31092060F1092050F00E010E040
:103F2000E4C48435910509F405C50CF4FEC4853557
:103F3000910509F403C58C35910511F00C94F42F0B
:103F400039E8C32E31E0D32E47E5E42E4AE0F42EC3
:103F500010E00FC58D36910509F4A1C49CF48A3692
:103F6000910509F4BAC40CF496C48B36910509F492
:103F7000B8C48C36910511F00C94F42F109288017E
:103F80000C94F42F8F36910509F4C2C30CF4ADC321
:103F90008037910509F45FC48237910511F00C94C4
:103FA000F42F0E94A9600E946D8E0C94F42F823E23
:103FB000910511F40C9427280CF080C08E3B9105DC
:103FC00009F471C4B4F58837910509F44CC6A4F41A
:103FD0008637910509F4DFC50CF0E1C585379105F9
:103FE00011F00C94F42F60E08091CC029091CD02FE
:103FF0000E94FDCD0C94F42F8C38910509F42FC448
:104000005CF48937910511F00C94F42F10929A0CFE
:1040100010927A0C0C94F42F8139910509F42AC678
:104020008B39910511F00C94F42F0E94A88F0C94F9
:10403000F42F8D3C910509F49FC6DCF4893C910571
:1040400009F492C64CF4883C910511F00C94F42FBD
:104050000E94E78D0C94F42F8B3C910509F488C6DF
:104060008C3C910511F00C94F42F0E94378D0C9428
:10407000F42F833D910509F426C7A4F48E3C9105E5
:1040800011F00C94F42FF9E8AF2EF1E0BF2EA7E465
:10409000CA2EAAE0DA2EBFE9EB2EBCE0FB2E00E030
:1040A00010E0D7C68C3D910511F40C94FC278D3D92
:1040B000910511F40C940B280C94F42F843AF1E040
:1040C0009F0711F40C94892BCCF5833631E09307CC
:1040D00011F40C946D2F9CF48D3251E0950711F47E
:1040E0000C947B288F32A1E09A0711F40C941929C3
:1040F0008C32914011F00C94F42F0C945228813999
:10410000E1E09E0711F40C94812B4CF4803991402E
:1041100011F00C94F42F0E94A9600C94F42F8239B2
:1041200031E0930711F40C94852B8A39914011F0FA
:104130000C94F42F0E94038D0C94F42F873F51E0D0
:10414000950711F40C94BF2C5CF5843FB1E09B07FC
:1041500011F40C94B92CACF48C3A914011F00C94FD
:10416000F42F5FE9C52E5CE0D52E67E4E62E6AE009
:10417000F62E7CEC272E74E0372E00E010E00C9435
:10418000DB2B853F21E0920711F40C94BC2C863F79
:10419000914011F00C94F42F0E94DF860C94F42FC0
:1041A000833543E0940711F40C94CD2C3CF488350E
:1041B000924011F40C94032D0C94F42F803AB3E048
:1041C0009B0709F44CC1873E934011F40C94862F51
:1041D0000C94F42FA090CC02B090CD0280E50E9408
:1041E000623A882359F00E94BC396B017C0111E0CE
:1041F000672B682B692B31F410E004C010E0C12C50
:10420000D12C760183E50E94623A8823F1F00E9466
:10421000003A20E030E04AE754E40E94EAF40E94C9
:10422000B1F96B017C01111112C0672B682B692B4E
:1042300071F4A114B10459F0D5018C91882339F09F
:1042400061E0C5010E94FDCD07C0112391F360E03C
:1042500089EA91E00E94DECD81E08093A00E0E9469
:10426000A9600E94753AC114D104E104F104F1F08F
:104270008091C00E9091C10EA091C20EB091C30E5C
:10428000C80ED91EEA1EFB1E0E94EB9DDC01CB016D
:104290008C199D09AE09BF09B7FF1CC08091A00E03
:1042A0008823C1F080E00E9431D4EECF8091A00E2F
:1042B000882321F080E00E9431D4F8CF8091E70F6D
:1042C00060E0882319F08AE991E002C088E891E073
:1042D0000E94DECD1092A00E0C94F42F84918F01D9
:1042E0000F5F1F4F882321F00E94BA3AF801F6CFE2
:1042F00010926D1210926C1240E050E0BA0188E109
:1043000090E10E9425C48BE1E8E1F0E1DE01159621
:1043100001900D928A95E1F78091161090911710F7
:104320009C838B8383EF91E09A83898340E050E004
:10433000BE016F5F7F4F88E992E00E943269CE0133
:1043400001960E94A7D3E5ECF1E084918F010F5F05
:104350001F4F882311F40C94F42F0E94BA3AF801ED
:10436000F4CF0E94A86E0C94F42F1092E70F1092D5
:10437000E80F0C94F42F803209F41082319680817A
:104380008111F9CF40E061E08091CC029091CD02A3
:104390000E94736B0C94F42F8091E80F882319F01E
:1043A00081E08093E70F0E9464700C94F42F809159
:1043B000E80F882311F40C94F42F83E50E94623AED
:1043C00081110C947D300C94F42F8091E80F882398
:1043D00051F1E5EEF1E084918F010F5F1F4F8823CB
:1043E00021F00E94BA3AF801F6CF60916312709101
:1043F000641280916512909166124AE00E94C13A5F
:104400008FE20E94BA3A60915F12709160128091BF
:104410006112909162124AE00E94C13A8AE00E94C1
:10442000BA3A0C94F42FE7EFF1E084918F010F5F1B
:104430001F4F882311F40C94F42F0E94BA3AF8010C
:10444000F4CF40E060E08091CC029091CD020E94D8
:10445000736B0C94F42F0E9431920C94F42F809182
:10446000CC029091CD0221E02093E60F40E060E085
:104470000E94736B0C94F42F0E94C4DBECE3CE2EED
:10448000D12CE12CF12CA70196010E9478F8762E10
:10449000672ECA01B901A70196010E9478F86B0145
:1044A0007C01CA01B90128E130E040E050E00E94FF
:1044B00078F84B015C01C9016DE671E00E94C2FA17
:1044C0008E010F5F1F4F6115710599F06F927F92FA
:1044D000DF92CF929F928F929F938F937F936F9350
:1044E00080E392E09F938F931F930F930E941BF49E
:1044F00012C00097B1F06F927F92DF92CF929F929D
:104500008F929F938F9380E292E09F938F931F935C
:104510000F930E941BF40FB6F894DEBF0FBECDBF01
:1045200036C081149104A104B10479F06F927F9296
:10453000DF92CF929F928F9284E192E09F938F932C
:104540001F930F930E941BF4E6CFC114D104E10422
:10455000F10469F06F927F92DF92CF928CE092E04B
:104560009F938F931F930F930E941BF4D4CF6F924E
:104570007F9288E092E09F938F931F930F930E9406
:104580001BF40F900F900F900F900F900F9060E022
:10459000C8010E94FDCDEAE4FAE184917F019FEF1A
:1045A000E91AF90A882321F00E94BA3AF701F5CFF7
:1045B000B80184E492E00E94AEA48AE00E94BA3A74
:1045C0000C94F42F83E50E94623A882311F40C9432
:1045D000F42F0E94DC39E82E80E50E94623A88239D
:1045E00011F40C94F42F0E94CC39162FC62ED72E1E
:1045F000D7FE02C00C94F42FEEE8F4E088E28E0FB0
:104600009491191729F031968E13FACF0C948E30AD
:10461000EFE2FAE184918F010F5F1F4F882321F0B1
:104620000E94BA3AF801F6CFE1E5F2E084918F01F9
:104630000F5F1F4F882311F40C94F42F0E94BA3A95
:10464000F801F4CF0E9464700C94F42F0E94A470BF
:104650000C94F42F0E94ECD90C94F42F88E690E08F
:104660000E94293B81110C94F42F8091600E83FFEE
:1046700002C00C94F42F83E50E94623A882311F45F
:104680000C94F42F0E94003A0E94AAF97093040F30
:104690006093030F80E00E946D440E94003A2091D5
:1046A000C4043091C5044091C6045091C7040E94CF
:1046B00038FA181614F00C94F42F8EE192E09F93C0
:1046C0008F938091CE0290E001969F938F9380E626
:1046D00092E09F938F931F920E94D1D90FB6F894C6
:1046E000DEBF0FBECDBF0C94F42F8EE40E94623A61
:1046F000882311F40C94F42F0E94CC396093361364
:104700007093371380933813909339130C94F42FCC
:1047100083E50E94623A882319F00E94DC3901C0C7
:1047200080E08093600EEAE4FAE184918F010F5FEC
:104730001F4F882321F00E94BA3AF801F6CFE5E72F
:10474000F2E084918F010F5F1F4F882321F00E94B8
:10475000BA3AF801F6CF8091600E8823A1F157E6AE
:10476000C52E52E0D52EE12CF12C20E08091600E78
:1047700090E00E2C02C0959587950A94E2F780FF91
:1047800017C0BB24B394B20E222319F08CE20E940E
:10479000BA3AF60125913491F901849189010F5FAC
:1047A0001F4F882321F00E94BA3A9801F5CF2B2D94
:1047B000FFEFEF1AFF0A32E0C30ED11C45E0E4160A
:1047C000F104A1F643C0E1E7F2E084918F010F5FAD
:1047D0001F4F8823D9F10E94BA3AF801F6CF8AE533
:1047E0000E94333A882311F40C94F52C0E94003A6D
:1047F0006B017C0120E030E040EA51EC0E9438FA85
:1048000087FF02C00C94E72C20E030E040EA51E43E
:10481000C701B6010E9484F4181614F40C94E72C16
:10482000C092130FD092140FE092150FF092160F52
:1048300080E00E94A58C6091130F7091140F8091FD
:10484000150F9091160F42E00E94773E8AE00E9479
:10485000BA3A0C94F42F8CE792E00E94B9D380917D
:10486000600E83FF02C00C94F42F83E50E94623A2D
:10487000882311F40C94F42F0E94003A0E94AAF9A4
:104880006937710514F068E770E07093080F609362
:10489000070F0C94F42F0E9414920C94A8330E94DA
:1048A00062900C94F42F8091600E83FF02C00C94F0
:1048B000F42F60E083E992E00E94DECD83E50E9460
:1048C000623A8CAB81110C94A53082E50E94623A69
:1048D00081110C94A5300C94F42F0E94878F0C94B6
:1048E000F42F0E94788F0C94F42F62E370E080E044
:1048F00090E00E94B19D0E94355F0F5F1F4F033112
:10490000110599F762E370E080E090E00E94B19DAC
:104910000E94355F60E080EA92E00E94DECD0C9458
:10492000F42F1092EF020C94F42F81E08093EF02A9
:104930000C94F42F0E942C8F0C94F42F83E50E948A
:10494000333A882311F40C94F42F0E94003A20E0AB
:1049500030E04AE754E40E94EAF40E94B1F960931F
:10496000C40E7093C50E8093C60E9093C70E0C9420
:10497000F42FD6018D916D010E94333A882309F4FA
:104980006DC0133009F063C00E94003A4B015C0116
:1049900020E030E040EA51E40E9484F487FF4EC0FA
:1049A000A50194016091630A7091640A8091650A7F
:1049B0009091660A0E9438F92B013C019B01AC01E1
:1049C0006091860E7091870E8091880E9091890E6D
:1049D0000E94EAF46093860E7093870E8093880E8F
:1049E0009093890EA301920160918E1270918F12A3
:1049F00080919012909191120E94EAF460938E122D
:104A000070938F12809390129093911260916D0E1B
:104A100070916E0E80916F0E9091700E0E9489F4CD
:104A2000A30192010E94EAF40E94B1F960936D0E15
:104A300070936E0E80936F0E9093700E8092630A47
:104A40009092640AA092650AB092660A07C00E941A
:104A5000003AF70160837183828393831F5FF4E0E0
:104A6000EF0EF11C143009F084CF0E9447B40C946F
:104A7000F42FEBE8F3E084918F010F5F1F4F882341
:104A800021F00E94BA3AF801F6CFEDE7F3E0849105
:104A90008F010F5F1F4F882321F00E94BA3AF8015F
:104AA000F6CFE6E6F3E084918F010F5F1F4F882376
:104AB00021F00E94BA3AF801F6CFE6E5F3E08491DE
:104AC0008F010F5F1F4F882321F00E94BA3AF8012F
:104AD000F6CFE5E4F3E084918F010F5F1F4F882349
:104AE00021F00E94BA3AF801F6CFE4E3F3E08491B2
:104AF0008F010F5F1F4F882321F00E94BA3AF801FF
:104B0000F6CFE5E2F3E084918F010F5F1F4F88231A
:104B100021F00E94BA3AF801F6CFE0E1F3E0849187
:104B20008F010F5F1F4F882321F00E94BA3AF801CE
:104B3000F6CFEAEFF2E084918F010F5F1F4F8823D9
:104B400021F00E94BA3AF801F6CFE5EEF2E0849146
:104B50008F010F5F1F4F882321F00E94BA3AF8019E
:104B6000F6CFE8ECF2E084918F010F5F1F4F8823AE
:104B700021F00E94BA3AF801F6CFE0EBF2E084911E
:104B80008F010F5F1F4F882311F40C94F42F0E94A4
:104B9000BA3AF801F4CF0E94348E0C94F42FEAE173
:104BA000F4E084918F010F5F1F4F882321F00E9452
:104BB000BA3AF801F6CFE2E1F4E084918F010F5F99
:104BC0001F4F882321F00E94BA3AF801F6CF32999C
:104BD00003C007E012E002C00CE012E0D8018D91A2
:104BE0008D01882319F00E94BA3AF8CF8AE00E941A
:104BF000BA3AEAE0F4E084918F010F5F1F4F8823F7
:104C000021F00E94BA3AF801F6CF339903C007E0C9
:104C100012E002C00CE012E0F80181918F018823BC
:104C200019F00E94BA3AF8CF8AE00E94BA3AE2E05C
:104C3000F4E084918F010F5F1F4F882321F00E94C1
:104C4000BA3AF801F6CF349B03C007E012E002C085
:104C50000CE012E0D8018D918D01882309F4F6CD86
:104C60000E94BA3AF7CF81E080939A0C80937A0C35
:104C70000C94F42F83E50E94623A882319F00E9475
:104C8000CC3902C060E070E08B01112702301105C1
:104C9000D4F0EFE2FAE184918F010F5F1F4F882378
:104CA00021F00E94BA3AF801F6CFE4E3F4E08491EF
:104CB0008F010F5F1F4F882311F40C94F42F0E9473
:104CC000BA3AF801F4CF88E40E94623A8823A9F046
:104CD0000E94CC396A3A71053CF06E31B1E07B0735
:104CE0002CF06DE171E002C06AEA70E0F801EE0FAD
:104CF000FF1FE355FB4F7183608386E40E94623A95
:104D00008823A9F00E94CC39F801EE0FFF1FEF5461
:104D1000FB4F718360836F3F710519F014F06FEFE3
:104D200070E077FF02C060E070E07183608382E42E
:104D30000E94623A882311F40C94F42F0E94CC391B
:104D40006530710534F06A3671052CF069E670E063
:104D500002C065E070E0000F111FF801E755FB4F3E
:104D6000718360830C94F42F0E94C28D0C94F42FF5
:104D70000E94A08D0C94F42F83E50E94333A88237F
:104D800051F00E94003A60937E1270937F128093DC
:104D900080129093811284E50E94333A882351F067
:104DA0000E94003A60937A1270937B1280937C1277
:104DB00090937D1282E40E94333A882351F00E943E
:104DC000BC396093580E7093590E80935A0E90938D
:104DD0005B0E88E50E94333A882351F00E94003A26
:104DE00060937A0E70937B0E80937C0E90937D0E71
:104DF00089E50E94333A882351F00E94003A60937B
:104E00007E0E70937F0E8093800E9093810E8AE5C4
:104E10000E94333A882351F00E94003A6093820E38
:104E20007093830E8093840E9093850E85E40E9488
:104E3000333A882311F40C94F42F0E94003A6093C3
:104E4000860E7093870E8093880E9093890E0C9433
:104E5000F42FF50181915F010E94333A882311F10B
:104E60000E94003A2B013C01D7012D913D914D91BB
:104E70005C910E94B4F89B01AC01F60160817181E4
:104E8000828193810E94B5F8D6016D937D938D93B5
:104E90009C931397F7014082518262827382C8010A
:104EA0000E94A0380F5F1F4FF4E0CF0ED11C24E00A
:104EB000E20EF11C0330110561F60E9475390E9463
:104EC0006D8E0C94F42FEAE4FAE184918F010F5F68
:104ED0001F4F882321F00E94BA3AF801F6CF83E5EC
:104EE0000E94333A882321F00E94F03980933F01D9
:104EF000EEE7F4E084918F010F5F1F4F882321F0CC
:104F00000E94BA3AF801F6CF80913F01811103C0A7
:104F1000EAE7F4E002C0E6E7F4E084918F010F5F76
:104F20001F4F882321F00E94BA3AF801F6CFEEE62F
:104F3000F4E084918F010F5F1F4F882321F00E94BE
:104F4000BA3AF801F6CF4091CF025091D002609169
:104F5000D1027091D2028CE694E00E9478A4409134
:104F6000D3025091D4026091D5027091D60289E6A5
:104F700094E00E9478A44091D7025091D8026091A9
:104F8000D9027091DA0286E694E00E9478A4EEE5F8
:104F9000F4E084918F010F5F1F4F882321F00E945E
:104FA000BA3AF801F6CF409116015091170160917D
:104FB0001801709119018CE594E00E9478A4409149
:104FC0001A0150911B0160911C0170911D0189E52E
:104FD00094E00E9478A440911E0150911F016091BD
:104FE00020017091210186E594E00E9478A48AE076
:104FF0000E94BA3A0C94F42F83E50E94623A882307
:1050000011F40C94F42F0E94CC3970931501609325
:1050100014010C94F42F8DED90E00E94293B811136
:105020000C94F42F83E50E94623A882311F40C94C7
:10503000F42F0091CE0210E00E94CC39000F111F16
:10504000F801EE5EFE4F718360830C94F42F80E5CF
:105050000E94333A882311F40C94F42F0E94CC3927
:10506000F62EC62ED72E83E50E94623A882321F0C1
:105070000E94CC398B0102C00FEF1FEFC8010196CF
:10508000039708F0B1C7D7FCAFC7EEE8F4E088E2B9
:105090008E0F9491F91609F4A7C731968E13F9CFA4
:1050A0000C94803383E50E94623A882319F00E94B1
:1050B000CC3902C064E071E079A368A380E50E9466
:1050C000623A882339F00E94CC39693833E173079A
:1050D00030F402C068EE73E07A83698304C088E824
:1050E00093E19A838983BE01605E7F4FCE01019672
:1050F0000E94F26F79C785E40E94623A811110C064
:1051000080E50E94333A882391F00E94003A609330
:105110009D0470939E0480939F049093A00407C005
:105120000E94DC39882361F3EFE2FAE171C089E47F
:105130000E94333A882381F00E94003A2CEA35EC31
:1051400047E25EE30E94EAF46093A5047093A6042C
:105150008093A7049093A80484E40E94333A8823A0
:1051600081F00E94003A2CEA35EC47E25EE30E94AF
:1051700038F96093A1047093A2048093A3049093E0
:10518000A404EAE4FAE184918F010F5F1F4F8823A2
:1051900021F00E94BA3AF801F6CF40919D04509157
:1051A0009E0460919F047091A0048EEB94E00E9495
:1051B00078A42CEA35EC47E25EE36091A504709197
:1051C000A6048091A7049091A8040E9438F9AB012D
:1051D000BC018AEB94E00E945BA42CEA35EC47E228
:1051E0005EE36091A1047091A2048091A304909168
:1051F000A4040E94EAF4AB01BC0186EB94E00E9497
:105200005BA48AE00E94BA3AEFC60E94BA3AF8015B
:1052100084918F010F5F1F4F8111F7CF09E212E0D8
:10522000D8018D918D01882309F410CB0E94BA3AE0
:10523000F7CF85E40E94623A882321F00E94CC399E
:105240008B0102C000E010E083E40E94623A8823F0
:1052500039F00E94CC3969967FAF6EAF699706C06E
:10526000E5E0F0E06996FFAFEEAF699785E50E9453
:10527000333A2E968FAF2E97882329F00E94F0396B
:105280002E968FAF2E9717FD07C0C12CD12C56E15B
:10529000E52E53E4F52E06C0C12CD12C4CE8E42EAB
:1052A00042E4F42E83E50E94623A882321F00E94B2
:1052B000003A6B017C010115110511F41092CE0228
:1052C0000E94EB9D4B015C01012B19F40AE312E0F3
:1052D0000BC00DE412E0D8018D918D01882309F4F3
:1052E000B5CA0E94BA3AF7CFF80181918F0188239D
:1052F00019F00E94BA3AF8CFC701B6010E94AAF984
:10530000072E000C880B990B0E948BF46EAB7AAFC2
:105310008BAF9CAF8AE00E94BA3A0E94B8448FE7F4
:105320008093820381E08093880163968CAE9DAE6A
:10533000AEAEBFAE63976D968CAE9DAEAEAEBFAE59
:105340006D971DAEF0E4FEAF2CE12FAF36E4219651
:105350003FAF219722961FAE229723961FAE239729
:1053600024961FAE249725961FAE25972D961CAE2A
:105370001DAE1EAE1FAE2D9729961CAE1DAE1EAEE5
:105380001FAE2997C12CD12C76013FE7432E512C1B
:10539000612C712C8FE790E0A0E0B0E088AB99AB76
:1053A000AAABBBAB67961CAE1DAE1EAE1FAE679719
:1053B00091E02F969FAF2F971DAA1CAA212C312C6C
:1053C00000E010E080918801882309F493C10E94D5
:1053D000EB9D6CA77DA78EA79FA780918003882354
:1053E00009F4A7C00E94D7442090C4043090C5049B
:1053F0000091C6041091C7049101A80122966FADD7
:10540000229723967FAD239724968FAD24972596D8
:105410009FAD25970E9484F487FF0CC022962FAE83
:10542000229723963FAE239724960FAF2497259675
:105430001FAF25979101A8016DAD7EAD8FAD21966F
:105440009FAD21970E9438FA181634F42DAE3EAE67
:105450000FAF21961FAF21972F96AFAD2F972EA993
:105460003AAD4BAD5CADB101C801AA2309F447C008
:105470000E9438FA18160CF05CC04CA55DA56EA50C
:105480007FA5481959096A097B09DB01CA018858B7
:105490009341A109B109B7FD4CC088A999A9AAA94E
:1054A000BBA984199509A609B709B595A79597953C
:1054B00087958093820367964CAF5DAF6EAF7FAFE9
:1054C0006797BEA92296BFAF2297EAAD2396EFAFAA
:1054D0002397FBAD2496FFAF24972CAD25962FAFD5
:1054E00025978CA59DA5AEA5BFA563968CAF9DAF56
:1054F000AEAFBFAF63972F961FAE2F971AC00E9413
:1055000084F487FF16C08CA59DA5AEA5BFA56396A4
:105510002CAD3DAD4EAD5FAD6397821B930BA40BDD
:10552000B50BAC01BD01485853416109710977FFC2
:105530003EC720E030E040EA51E46EA97AAD8BAD81
:105540009CAD0E94B5F89B01AC01B101C8010E945D
:1055500038FA18166CF4ECE7F5E084918F010F5FD0
:105560001F4F882309F440C50E94BA3AF801F5CFCD
:1055700080E398EFAFEFBFEF6D962CAD3DAD4EAD34
:105580005FAD6D97821B930BA40BB50B2CA53DA5AE
:105590004EA55FA5820F931FA41FB51FB7FD0FC0B7
:1055A0000E94D68F8AE00E94BA3A8CA59DA5AEA52E
:1055B000BFA56D968CAF9DAFAEAFBFAF6D978CA5FD
:1055C0009DA5AEA5BFA5880F991FAA1FBB1F6396F7
:1055D0002CAD3DAD4EAD5FAD6397821B930BA40B1D
:1055E000B50B88199909AA09BB0981389F44A241C2
:1055F000B10568F0EEE5F5E084918F010F5F1F4F74
:10560000882309F4F1C40E94BA3AF801F5CF4CA9F5
:105610005DA969968EAD9FAD6997841795070CF0CB
:1056200066C0E1E0F5E084918F010F5F1F4F882392
:1056300021F00E94BA3AF801F6CFB701A6018CEE2C
:1056400094E00E9478A48AE00E94BA3A29964CAD70
:105650005DAD6EAD7FAD299787ED94E00E9478A493
:105660008AE00E94BA3A2D964CAD5DAD6EAD7FAD2D
:105670002D9782EC94E00E9478A48AE00E94BA3AC6
:105680002E969FAD2E97992309F4AEC4C0929D0427
:10569000D0929E04E0929F04F092A0042CEA35EC94
:1056A00047E25EE329966CAD7DAD8EAD9FAD299747
:1056B0000E94EAF46093A5047093A6048093A70463
:1056C0009093A8042CEA35EC47E25EE32D966CAD8E
:1056D0007DAD8EAD9FAD2D970E9438F96093A104EA
:1056E0007093A2048093A3049093A4047DC40E94A9
:1056F0000ECE68CE80918801811176C40E94B84494
:1057000073C481E00E9497726FC480E00E94977218
:105710006BC486E50E94333A882321F08DE196E040
:105720000E943EEC83E50E94333A182F882319F03B
:105730000E94F039182F83E50E94333A882319F02C
:10574000812F0E940972F0900F05111103C0EAE445
:10575000FAE118C0F110FBCF0FE21AE1F8018491D1
:10576000882329F00F5F1F4F0E94BA3AF7CF0EEF40
:1057700015E0F8018491882351F30F5F1F4F0E94B9
:10578000BA3AF7CF84918F010F5F1F4F882321F022
:105790000E94BA3AF801F6CFF11003C06AE172E054
:1057A00002C066E172E080EF95E00E94AEA48AE05C
:1057B0000E94BA3A19C491012C5C34403DA72CA731
:1057C000D1018D911D01882309F4A1C0F70140800A
:1057D000518062807380F801EA5EFE4F2081318142
:1057E00042815381F801E153FD4F608171818281D3
:1057F00093810E94B5F820E030E040E05FE30E9432
:10580000EAF49B01AC01C301B2010E9438FA1816F8
:1058100044F4F801E655FF4C85909590A590B4901E
:1058200003C0812C912C5401F801E95EF04F2081D6
:10583000318142815381C301B2010E94B4F89B01BE
:10584000AC01C501B4010E94B4F84B015C0120E039
:1058500030E040EA51EC0E9438FA87FD29C020E090
:1058600030E040EA51E4C501B4010E9484F4181606
:10587000FCF0D6012D913D914D915C91C501B40193
:105880000E94B4F89B01AC01C301B2010E94B5F8BB
:10589000F7016083718382839383D6018D929D92F9
:1058A000AD92BC9213978CA59DA50E94A0382FC0E5
:1058B000EFE2FAE184918F010F5F1F4F882321F0FF
:1058C0000E94BA3AF801F6CFE8E5F6E084918F013C
:1058D0000F5F1F4F882321F00E94BA3AF801F6CFDC
:1058E00061E08AE496E00E94DECD0E946B5388E27C
:1058F00090E09A83898388EC90E099A388A3BE0105
:105900006F5F7F4FCE0180960E94F26F6DC3B4E04F
:10591000CB0ED11C0C5F1F4FE4E0EE0EF11C0C30DF
:10592000110509F048CF0E9475390E946D8E60E024
:105930008AE396E00E94DECD83E992E099A388A3F2
:1059400004E610E01A830983BE01605E7F4FCE013A
:1059500001960E94F26F8AEB92E099A388A31A83C2
:105960000983BE01605E7F4FCE0101960E94F26FF7
:105970003BC30E942AB538C30E94FA8735C383E52A
:105980000E94333A882319F00E94F03901C081E067
:1059900091E089270E94EC8227C3EAE4FAE184912E
:1059A0008F010F5F1F4F882321F00E94BA3AF80140
:1059B000F6CFE0E9F6E084918F010F5F1F4F882357
:1059C00011F40C94EF230E94BA3AF801F4CFE9E7FE
:1059D000F6E084918F010F5F1F4F882311F40C9420
:1059E00026240E94BA3AF801F4CF4091130F509147
:1059F000140F6091150F7091160F86E796E00E94C4
:105A000078A40C94262485E40E94333A882329F054
:105A10000E94003A4B015C0105C0812C912CA12C05
:105A200040ECB42E8AE50E94623A882329F00E9455
:105A3000003A2B013C0106C0412C512C30E2632E70
:105A400031E4732E88E50E94623A882319F00E949F
:105A5000003A04C060E070E080E490E468A779A7B1
:105A60008AA79BA789E50E94623A882319F00E94C1
:105A7000003A04C060E070E080E490E46CA37DA391
:105A80008EA39FA385E50E94333A882329F00E94C4
:105A9000003A6B017C0106C0C12CD12C26E1E22E1C
:105AA00024ECF22E8CE40E94333A882339F00E94D1
:105AB000003A6CA77DA78EA79FA704C01CA61DA6B1
:105AC0001EA61FA682E40E94623A882321F00E944B
:105AD000CC39162F01C015E02090D70F3090D80F89
